S01B00005F73656E736F725F756C747261736F6E69635F2E737265630E
S11300000C9434000C9451000C9451000C94510045
S11300100C9451000C9451000C9451000C94510018
S11300200C9451000C9451000C9451000C94510008
S11300300C9451000C9451000C9400020C94510047
S11300400C9451000C9451000C9451000C945100E8
S11300500C9451000C9451000C9451000C945100D8
S11300600C9451000C94510011241FBECFEFD8E022
S1130070DEBFCDBF11E0A0E0B1E0EEE0FAE002C0E7
S113008005900D92A231B107D9F721E0A2E1B1E0C8
S113009001C01D92AB31B207E1F70E9445020C94F6
S11300A005050C940000209852988BB18B7F8BB976
S11300B08BB987B18F6087B98AB1806F8AB9539A37
S11300C084B18E6184B938B1432F4E7F48B998B159
S11300D0392F3D7F38B998B1292F2B7F28B998B192
S11300E0892F877F88B9342B232B822B88B945B17C
S11300F0542F5D7F55B995B1492F4B7F45B995B1C3
S1130100392F377F35B995B1292F2F7E25B995B170
S1130110892F8E7F85B9452B342B232B822B85B9D0
S11301204BB1542F577F5BB99BB1492F4F7E4BB9CD
S11301309BB1392F3F7D3BB99BB1292F2F7B2BB925
S11301409BB1892F8F778BB9452B342B232B822B93
S11301508BB9089584B5826084BD85B5846085BDFE
S113016016BC89EF87BDEEE6F0E080818260808373
S113017078940895E1E8F0E08081826480831092AD
S11301808500109284000895FC0188964193519350
S113019061937193E817F907C9F708950F931F93B3
S11301A0CF93DF93EC018C01085D1F4F60E070E09A
S11301B0CB0129913991499159910E94EE02C017BE
S11301C0D107B9F720E030E040E251E40E945A033D
S11301D0DF91CF911F910F910895CF92DF92EF920B
S11301E0FF920F931F93CF93DF93EC018B01CA010E
S11301F0B90120E030E040E251E40E9489040E9409
S1130200CC036B017C019B01ADECBCEC0E94F604B9
S11302109695879596958795969587959C01220F37
S1130220331F880F991F880F991F880F991F820FFA
S1130230931F9601281B390BFE01E20FF11D8081EB
S1130240F801808396013695279536952795ABE777
S1130250B4E10E94F6049695879544E6489F900180
S1130260499F300D1124C601821B930B9C01ADECF8
S1130270BCEC0E94F604969587959695879596957D
S11302808795FE01E80FF11D8081F8018183A601A5
S11302905695479556954795569547959A01A5ECD9
S11302A0B0E20E94F604929582958F7089279F7020
S11302B0892768EE73E0869F9001879F300D969F93
S11302C0300D1124C21AD30A960136952795369516
S11302D02795ABE7B4E10E94F60496958795FE0155
S11302E0E80FF11D8081F80182839A01A5ECB0E248
S11302F00E94F604929582958F7089279F708927B2
S1130300C80FD11D88818383DF91CF911F910F91F5
S1130310FF90EF90DF90CF90089588B1807F88B9E7
S11303208BB18F708BB985B1817E85B980911401B1
S11303308F3341F4809115018F3321F4E2E1F1E030
S113034012821382809115018F3329F48091140154
S1130350811110921501809113018C3578F48091EC
S1130360140181110BC080911501811107C0E2E1D4
S1130370F1E01382128289E78183808380911501E1
S1130380863698F080911401882379F080911301C6
S1130390882359F080911201882339F0E2E1F1E0D9
S11303A01382128289E781838083E0911A01F0E04D
S11303B0EE5EFE4F808198B182958F70892B88B94B
S11303C0E0911A01F0E0EE5EFE4F90812BB130E136
S11303D0939FC0011124822B8BB920911A0135B14E
S11303E02F5F81E090E002C0880F991F2A95E2F701
S11303F0832B85B980911A01813009F4439A0895B9
S11304001F920F920FB60F9211242F933F934F9385
S11304105F936F937F938F939F93AF93BF93EF9368
S1130420FF9360911A0170E082E191E00E948D01D6
S113043080911A018F5F80931A01809119018F5F57
S113044080931901809118018F5F80931801809126
S11304501A01843010F010921A01FF91EF91BF91AC
S1130460AF919F918F917F916F915F914F913F9148
S11304702F910F900FBE0F901F9018955B9A85E3F4
S11304808A95F1F700005B980895CF93DF93CDB779
S1130490DEB7E9970FB6F894DEBF0FBECDBF0E945A
S11304A053000E94AA000E94BA0081E1E0E0F1E05A
S11304B0DE01119601900D928A95E1F7FE01729684
S11304C088E2DF011D928A95E9F7812C912C540171
S11304D024013501332433940F2EF4E8EF2EF12C4C
S11304E0F02D01E810E00F2EF6E8CF2ED12CF02DE0
S11304F080911901893120F010921901309217016D
S1130500809118018A3F20F0109218013092160150
S113051080911701882309F44CC0109217010E949E
S11305203E02F70111821082B59B27C0B59AD8010B
S11305308C9186FF0EC0F6016081718180E090E0AD
S11305400E94FB032B013C01D8018C918F7B8C937F
S113055014C0F801808186FD10C0D6016D917C9194
S113056080818064808380E090E00E94FB03A3018B
S113057092010E94ED024B015C012DEB37E346E052
S113058055E3C501B4010E94890420E03CEF45E82D
S113059056E40E9489044A9B06C02CE53FE842E2E7
S11305A050E40E945A03AB01BC01CE0142960E9462
S11305B0C40080911601882309F49ACF1092160181
S11305C0CE0142960E94CE009B01AC0162E171E033
S11305D0CE0101960E94ED008BCF5058BB27AA276D
S11305E00E9405030C944F040E94410438F00E94B9
S11305F0480420F039F49F3F19F426F40C943E0487
S11306000EF4E095E7FB0C943804E92F0E94600493
S113061058F3BA17620773078407950720F079F433
S1130620A6F50C9482040EF4E0950B2EBA2FA02D9F
S11306300B01B90190010C01CA01A0011124FF278B
S1130640591B99F0593F50F4503E68F11A16F04086
S1130650A22F232F342F4427585FF3CF4695379585
S11306602795A795F0405395C9F77EF41F16BA0B4A
S1130670620B730B840BBAF09150A1F0FF0FBB1FF8
S1130680661F771F881FC2F70EC0BA0F621F731F41
S1130690841F48F4879577956795B795F7959E3F9E
S11306A008F0B0CF9395880F08F09927EE0F97952F
S11306B0879508950E946E030C944F040E94480489
S11306C058F00E94410440F029F45F3F29F00C9453
S11306D0380451110C9483040C943E040E94600469
S11306E068F39923B1F3552391F3951B550BBB275D
S11306F0AA2762177307840738F09F5F5F4F220FA2
S1130700331F441FAA1FA9F335D00E2E3AF0E0E898
S113071032D091505040E695001CCAF72BD0FE2FE2
S113072029D0660F771F881FBB1F26173707480776
S1130730AB07B0E809F0BB0B802DBF01FF2793582E
S11307405F4F3AF09E3F510578F00C9438040C94B6
S113075083045F3FE4F3983ED4F3869577956795D9
S1130760B795F7959F5FC9F7880F911D9695879563
S113077097F90895E1E0660F771F881FBB1F621782
S113078073078407BA0720F0621B730B840BBA0B40
S1130790EE1F88F7E09508950E94680488F09F573B
S11307A098F0B92F9927B751B0F0E1F0660F771F91
S11307B0881F991F1AF0BA95C9F714C0B13091F087
S11307C00E948204B1E008950C948204672F782F6C
S11307D08827B85F39F0B93FCCF38695779567954C
S11307E0B395D9F73EF490958095709561957F4FB8
S11307F08F4F9F4F0895E89409C097FB3EF490955E
S11308008095709561957F4F8F4F9F4F9923A9F0E5
S1130810F92F96E9BB279395F69587957795679574
S1130820B795F111F8CFFAF4BB0F11F460FF1BC0B8
S11308306F5F7F4F8F4F9F4F16C0882311F096E94B
S113084011C0772321F09EE8872F762F05C06623F9
S113085071F096E8862F70E060E02AF09A95660FB2
S1130860771F881FDAF7880F9695879597F908956B
S113087097F99F6780E870E060E008959FEF80EC4F
S1130880089500240A9416161706180609060895F2
S113089000240A9412161306140605060895092E58
S11308A00394000C11F4882352F0BB0F40F4BF2BC7
S11308B011F460FF04C06F5F7F4F8F4F9F4F089507
S11308C057FD9058440F551F59F05F3F71F04795FD
S11308D0880F97FB991F61F09F3F79F087950895E2
S11308E0121613061406551FF2CF4695F1DF08C001
S11308F0161617061806991FF1CF8695710561051E
S113090008940895E894BB2766277727CB0197F9C5
S113091008950E949C040C944F040E94410438F0F2
S11309200E94480420F0952311F00C9438040C9490
S11309303E0411240C9483040E94600470F3959F78
S1130940C1F3950F50E0551F629FF001729FBB27C2
S1130950F00DB11D639FAA27F00DB11DAA1F649F5E
S11309606627B00DA11D661F829F2227B00DA11D11
S1130970621F739FB00DA11D621F839FA00D611D97
S1130980221F749F3327A00D611D231F849F600DB8
S1130990211D822F762F6A2F11249F5750409AF0E1
S11309A0F1F088234AF0EE0FFF1FBB1F661F771F6D
S11309B0881F91505040A9F79E3F510580F00C9438
S11309C038040C9483045F3FE4F3983ED4F3869593
S11309D077956795B795F795E7959F5FC1F7FE2BD8
S11309E0880F911D9695879597F90895A29FB00158
S11309F0B39FC001A39F700D811D1124911DB29F4F
S1110A00700D811D1124911D0895F894FFCFEF
S1130A0E3F065B4F666D7D077F6F777C395E79712C
S1050A1E0000D2
S9030000FC
