S020000030335F414C4C5F434F4D42494E45445F50425F325F4C45442E7372656313
S11300000C9434000C943E000C943E000C943E007E
S11300100C943E000C943E000C943E000C943E0064
S11300200C943E000C943E000C943E000C943E0054
S11300300C943E000C943E000C943E000C943E0044
S11300400C943E000C943E000C943E000C943E0034
S11300500C943E000C943E000C943E000C943E0024
S11300600C943E000C943E0011241FBECFEFD8E048
S1130070DEBFCDBF0E9478000C94B3000C94000046
S1130080209885B18E7F85B985B987B1806387B99A
S113009088B1282F2F7E28B998B1892F8F7D88B9F0
S11300A0822B88B90895FC019081961718F010826C
S11300B081E008959F5F908380E00895FC01908122
S11300C0691304C06F5F608381E00895691730F499
S11300D0941720F49F5F908380E00895640F691360
S11300E003C0108281E008959F5F908380E00895AB
S11300F0CF93DF9300D01F92CDB7DEB719821A8257
S11301001B820E94400000E210E14EE16AE0CE0151
S113011002960E945E00882319F088B1802788B96E
S1130120189B0CC064E1CE0101960E945300882301
S113013081F01B8288B1812788B90BC060EACE01A7
S113014003960E945300882321F0198288B18127E5
S113015088B92FE788E391E0215080409040E1F78F
S10D016000C00000D2CFF894FFCFD6
S9030000FC
