S01E000054656D70657261747572615F53657269616C5F436F6D2E737265633F
S11300000C94B5000C94D2000C94D2000C94D20041
S11300100C94D2000C94D2000C94D2000C94D20014
S11300200C94D2000C94D2000C94D2000C94D20004
S11300300C94D2000C94D2000C944D030C94D20076
S11300400C94D2000C94D2000C94D2000C94D200E4
S11300500C94D2000C948C010C94D2000C94D20019
S11300600C94D2000C94D2006E616E00696E66002E
S113007000407A10F35A00A0724E18090010A5D45B
S1130080E80000E87648170000E40B54020000CAB8
S11300909A3B000000E1F5050000809698000000FE
S11300A040420F000000A08601000000102700005D
S11300B00000E803000000006400000000000A00E3
S11300C0000000000100000000002C76D888DC67E6
S11300D04F0823DFC1DFAE59E1B1B796E5E3E4533E
S11300E0C63AE651997696E8E6C28426EB898C9B5B
S11300F062ED407C6FFCEFBC9C9F40F2BAA56FA5FB
S1130100F490055A2AF75C936B6CF9676DC11BFC7C
S1130110E0E40D47FEF520E6B500D0ED902E030097
S1130120943577050080841E080000204E0A0000E4
S113013000C80C333333330F986E12831141EF8DA3
S11301402114893BE65516CFFEE6DB18D1844B38E3
S11301501BF77C1D901DA4BBE424203284725E2214
S11301608100C9F124ECA1E53D2711241FBECFEF86
S1130170D8E0DEBFCDBF12E0A0E0B1E0E2E0FBE1F9
S113018002C005900D92AA39B107D9F722E0AAE975
S1130190B2E001C01D92A33BB207E1F70E948C04B8
S11301A00C947F0D0C940000CF93C82F8A3029F44F
S11301B060E070E08DE00E94D400E0ECF0E080812B
S11301C085FFFDCFC093C60080E090E0CF910895F5
S11301D03C9888B18F7E88B988B987B18F6087B918
S11301E08AB18C6F8AB984B18E6384B938B1432FD4
S11301F04E7F48B998B1392F3D7F38B998B1292F2E
S11302002B7F28B998B1892F877F88B9342B232B6A
S1130210822B88B955B1652F6D7F65B995B1592F7A
S11302205B7F55B995B1492F477F45B995B1392FB2
S11302303F7E35B995B1292F2E7F25B995B1892FE8
S11302408F7D85B9562B452B342B232B822B85B9D7
S11302505BB1652F6B7F6BB99BB1592F577F5BB92E
S11302609BB1492F4F7E4BB99BB1392F3F7D3BB991
S11302709BB1292F2F7B2BB99BB1892F8F778BB9FA
S1130280562B452B342B232B822B8BB9089584B505
S1130290826084BD85B5846085BD16BC89EF87BD49
S11302A0EEE6F0E080818260808378940895E1E84E
S11302B0F0E080818C60808310928500109284002D
S11302C08EE390E090938B0080938A00089587E6F4
S11302D090E09093C5008093C400E1ECF0E080814D
S11302E081618083808180688083E2ECF0E080819A
S11302F08660808378940895ECE7F0E080818564DB
S11303008083EAE7F0E080818F6A8083EBE7F0E0A6
S113031080818360808308951F920F920FB60F929D
S11303201124CF92DF92EF92FF922F933F934F933A
S11303305F936F937F938F939F93AF93BF93EF9349
S1130340FF93B29A6091780070917900C090A302F3
S1130350D090A402E090A502F090A60280E090E084
S11303600E94FA06A70196010E94E8056093A30281
S11303707093A4028093A5029093A60280919E029A
S11303808F5F80939E0280919E02843619F560915E
S1130390A3027091A4028091A5029091A60220E08C
S11303A030E048EC52E40E94590660939F02709337
S11303B0A0028093A1029093A20281E080939D0207
S11303C01092A3021092A4021092A5021092A60207
S11303D010929E02FF91EF91BF91AF919F918F91E7
S11303E07F916F915F914F913F912F91FF90EF908B
S11303F0DF90CF900F900FBE0F901F90189566233B
S113040049F0FC012081223010F0108208952F5F02
S1130410FC0120830895FC018081811107C05A9A50
S11304205B982D9881E080939C020895813031F48B
S11304305B9A5A982D9880939B020895823031F4E8
S11304402D9A5B985A9881E080939A0208951F939D
S1130450CF93DF93EC01FB0155232CF45195419587
S1130460510911E001C010E09A01ADECBCEC0E940E
S11304709B0B9695879596958795969587959C0160
S1130480220F331F880F991F880F991F880F991FF8
S1130490820F931F9A01281B390BDE01A20FB11D95
S11304A08C9180839A013695279536952795ABE7ED
S11304B0B4E10E949B0B9695879564E6689F900132
S11304C0699F300D1124CA01821B930B9C01ADEC72
S11304D0BCEC0E949B0B969587959695879596956F
S11304E08795DE01A80FB11D8C9181839A01369501
S11304F027953695279536952795A5ECB0E20E9469
S11305009B0B929582958F7089279F70892768EE3F
S113051073E0869F9001879F300D969F300D1124C4
S1130520CA01821B930B9C01369527953695279516
S1130530ABE7B4E10E949B0B96958795DE01A80F6B
S1130540B11D8C918283112379F082818F3311F054
S113055080E4838382818F33E1F481818F33C9F016
S113056080E48283138215C09A01369527953695C7
S1130570279536952795A5ECB0E20E949B0B9295A2
S113058082958F7089279F708927C80FD91F88810A
S11305908383DF91CF911F91089588B1807F88B9BB
S11305A08BB18F708BB985B1817E85B94A9B05C0AB
S11305B08091AC02833009F4439A4B9B23C0809111
S11305C0AC02813009F4439A8091A9028F3341F43B
S11305D08091AA028F3321F4E7EAF2E012821382B7
S11305E08091AA028F3329F48091A902811110927B
S11305F0AA028091A9028F3329F48091AA02811161
S11306001092A9021D9B23C08091AC02813009F491
S1130610439A8091A9028F3341F48091AA028F33C7
S113062021F4E7EAF2E0128213828091AA028F3366
S113063029F48091A90281111092AA028091A90241
S11306408F3329F48091AA0281111092A902E091BA
S1130650AC02F0E0E955FD4F808198B182958F702E
S1130660892B88B9E091AC02F0E0E955FD4F908107
S11306702BB130E1939FC0011124822B8BB92091BF
S1130680AC0235B12F5F81E090E002C0880F991F62
S11306902A95E2F7832B85B908951F920F920FB61E
S11306A00F9211242F933F934F935F936F937F93F4
S11306B08F939F93AF93BF93EF93FF936091AC029B
S11306C070E087EA92E00E94CD028091AC028F5FD5
S11306D08093AC028091AB028F5F8093AB028091D8
S11306E0AC02843010F01092AC02FF91EF91BF91F4
S11306F0AF919F918F917F916F915F914F913F91B6
S11307002F910F900FBE0F901F90189586B1829570
S1130710817008952F923F924F925F926F927F92D1
S11307208F929F92AF92BF92CF92DF92EF92FF92FD
S11307300F931F93CF93DF93CDB7DEB728970FB6F0
S1130740F894DEBF0FBECDBF98878F837A83698309
S113075049015A01FC01E856FF4F60817181828191
S113076093810E94540688235CF4E981FA81E85657
S1130770FF4F1081018122812F8333813983AFC0E0
S1130780EF81F8852081318142815381C501B40113
S11307900E94540688235CF4E981FA811081018166
S11307A0F281FF83E981FA81F381F98398C00F8193
S11307B0188518861F822F803884F801C190D19043
S11307C0E190F1908F0191012C5F3F4F38872F8387
S11307D0A7019601C501B4010E94AC0788230CF45B
S11307E06BC0F8014080518062807380A301920144
S11307F0C501B4010E94540618160CF45DC02F8183
S1130800388589819A81280F391FF901F081FB838A
S1130810F901F181FC83F901F281FD83F901F3818E
S1130820FE83FC01E20DF31D1081018122812F83DF
S113083033813983A7019601C501B4010E9454068E
S113084018160CF04CC0A3019201C501B4010E941A
S1130850AC078823F4F5A7019601C501B4010E94F1
S1130860E7054B015C01A7019601C301B2010E9497
S1130870E7059B01AC01C501B4010E9459066B0157
S11308807C01212F302F4F8159816B817C818D8197
S11308909E810E94E7059B01AC01C701B6010E943D
S11308A0B107212F302F4F8159810E94E805162F5F
S11308B0072F8F83998313C08F8198858839910579
S11308C009F079CF10E000E09AEC9F83E3E4E98338
S11308D006C01B810C81FD81FF832E812983612F3A
S11308E0702F8F81998128960FB6F894DEBF0FBEC2
S11308F0CDBFDF91CF911F910F91FF90EF90DF90CB
S1130900CF90BF90AF909F908F907F906F905F90AB
S11309104F903F902F900895CF93DF93CDB7DEB7DC
S11309206F970FB6F894DEBF0FBECDBF188681E176
S1130930E6E4F2E0DE01199601900D928A95E1F762
S113094088E392E09093B0028093AF020E94E800A3
S11309500E9447010E9457010E947C010E94670186
S113096020E048E268E2CE0101960E94BA05312CEB
S1130970212C1E8E1F8EC12CD12CB12CA12C1A8E91
S11309801B8E1C8E1D8E0F2EF7E54F2EF2E05F2E70
S1130990F02D0E948603682FCE0101960E94C305A4
S11309A060E0CE0101960E94E205682FCE01089610
S11309B00E94FF01CE0108960E940B0280919D02C5
S11309C0882309F47FC010929D0260919F02709168
S11309D0A0028091A1029091A20221E73DE342E9A5
S11309E05BE30E94B107E62E172F082FF92E6A8FBA
S11309F07B8F8C8F9D8F762F272F312F402F5F2D4C
S1130A0060E070E48CE196E40E9459064B015C01BD
S1130A102E2D312F402F5F2D61E378E080EA90E4A2
S1130A200E94E7059B01AC01C501B4010E94B10716
S1130A30662E772E882E992E762F272F372D482D28
S1130A40592D60E071E08CE991E00E948A03C62E82
S1130A50D72EB82EA92E26E636E646EE5FE30E9490
S1130A60B10720E030E040E052E40E94E805262F80
S1130A70372F362E272E8E8F9F8F40919F025091B5
S1130A80A0026091A1027091A2029F938F933F9361
S1130A902F93AF92BF92DF92CF929F928F927F92C9
S1130AA06F92FF920F931F93EF927F936F935F93D5
S1130AB04F935F924F920E940B0D0FB6F894DEBFD6
S1130AC00FBECDBF80919C028823C9F010929C0276
S1130AD020E030E04AE754E4BA8DAB8DFC8DED8D17
S1130AE06B2F7A2F8F2F9E2F0E94B1070E94CB0667
S1130AF0AB0167EA72E0CE0109960E942702809159
S1130B009B028823A9F010929B0220E030E040E28F
S1130B1051E46C2D7D2D8B2D9A2D0E94B1070E94DE
S1130B20CB06AB0167EA72E0CE0109960E94270268
S1130B3080919A028823B9F010929A0220E030E062
S1130B4040E251E4FE8DEF8D632D722D8F2F9E2F89
S1130B500E94B1070E94CB06AB0167EA72E0CE01A6
S1130B6009960E9427028FE19EE40197F1F700C0E5
S1130B7000000FCFFC01608341831282238324830E
S1130B80158216820895FC0115821682648383817E
S1130B90681302C01282089582818F5F662341F038
S1130BA09081891768F0128281E083838583089598
S1130BB09181891728F01282138281E08683089537
S1130BC082830895FC01858161111582089550582E
S1130BD0BB27AA270E94FF050C9472070E94640792
S1130BE038F00E946B0720F039F49F3F19F426F483
S1130BF00C9461070EF4E095E7FB0C945B07E92F76
S1130C000E94830758F3BA1762077307840795078E
S1130C1020F079F4A6F50C94A5070EF4E0950B2EBC
S1130C20BA2FA02D0B01B90190010C01CA01A0013A
S1130C301124FF27591B99F0593F50F4503E68F195
S1130C401A16F040A22F232F342F4427585FF3CFD6
S1130C50469537952795A795F0405395C9F77EF4A7
S1130C601F16BA0B620B730B840BBAF09150A1F0F0
S1130C70FF0FBB1F661F771F881FC2F70EC0BA0F76
S1130C80621F731F841F48F4879577956795B795FE
S1130C90F7959E3F08F0B0CF9395880F08F09927F9
S1130CA0EE0F9795879508950E94370708F481E021
S1130CB008950E946D060C9472070E946B0758F009
S1130CC00E94640740F029F45F3F29F00C945B070D
S1130CD051110C94A6070C9461070E94830768F3D2
S1130CE09923B1F3552391F3951B550BBB27AA27E1
S1130CF062177307840738F09F5F5F4F220F331F1B
S1130D00441FAA1FA9F335D00E2E3AF0E0E832D0E2
S1130D1091505040E695001CCAF72BD0FE2F29D0E5
S1130D20660F771F881FBB1F261737074807AB07B7
S1130D30B0E809F0BB0B802DBF01FF2793585F4F2C
S1130D403AF09E3F510578F00C945B070C94A6078B
S1130D505F3FE4F3983ED4F3869577956795B7950E
S1130D60F7959F5FC9F7880F911D9695879597F919
S1130D700895E1E0660F771F881FBB1F6217730792
S1130D808407BA0720F0621B730B840BBA0BEE1FA7
S1130D9088F7E09508950E948B0788F09F5798F094
S1130DA0B92F9927B751B0F0E1F0660F771F881F6C
S1130DB0991F1AF0BA95C9F714C0B13091F00E9486
S1130DC0A507B1E008950C94A507672F782F88270D
S1130DD0B85F39F0B93FCCF3869577956795B395AD
S1130DE0D9F73EF490958095709561957F4F8F4F1C
S1130DF09F4F0895E89409C097FB3EF49095809521
S1130E00709561957F4F8F4F9F4F9923A9F0F92FCC
S1130E1096E9BB279395F695879577956795B7954A
S1130E20F111F8CFFAF4BB0F11F460FF1BC06F5F30
S1130E307F4F8F4F9F4F16C0882311F096E911C042
S1130E40772321F09EE8872F762F05C0662371F063
S1130E5096E8862F70E060E02AF09A95660F771F77
S1130E60881FDAF7880F9695879597F90895990F53
S1130E700008550FAA0BE0E8FEEF16161706E80760
S1130E80F907C0F012161306E407F50798F0621B81
S1130E90730B840B950B39F40A2661F0232B242B56
S1130EA0252B21F408950A2609F4A140A6958FEF75
S1130EB0811D811D089597F99F6780E870E060E0C7
S1130EC008959FEF80EC089500240A9416161706DF
S1130ED018060906089500240A9412161306140627
S1130EE005060895092E0394000C11F4882352F08A
S1130EF0BB0F40F4BF2B11F460FF04C06F5F7F4F42
S1130F008F4F9F4F089557FD9058440F551F59F028
S1130F105F3F71F04795880F97FB991F61F09F3FE2
S1130F2079F087950895121613061406551FF2CF0B
S1130F304695F1DF08C0161617061806991FF1CF5B
S1130F4086957105610508940895E894BB27662782
S1130F507727CB0197F908950E94370708F48FEF9C
S1130F6008950E94C4070C9472070E94640738F025
S1130F700E946B0720F0952311F00C945B070C94EE
S1130F80610711240C94A6070E94830770F3959FB0
S1130F90C1F3950F50E0551F629FF001729FBB276C
S1130FA0F00DB11D639FAA27F00DB11DAA1F649F08
S1130FB06627B00DA11D661F829F2227B00DA11DBB
S1130FC0621F739FB00DA11D621F839FA00D611D41
S1130FD0221F749F3327A00D611D231F849F600D62
S1130FE0211D822F762F6A2F11249F5750409AF08B
S1130FF0F1F088234AF0EE0FFF1FBB1F661F771F17
S1131000881F91505040A9F79E3F510580F00C94E1
S11310105B070C94A6075F3FE4F3983ED4F38695F0
S113102077956795B795F795E7959F5FC1F7FE2B81
S1131030880F911D9695879597F90895A0E1B0E0E2
S1131040E4E2F8E00C94AA0B7C011B016A01FC01A8
S113105017821682838181FF44C39E012F5F3F4F15
S11310603901F7019381F10193FD859193FF8191FA
S11310701F01882309F431C3853239F493FD859126
S113108093FF81911F01853239F4B70190E00E94EA
S1131090CF0C56016501E5CF10E0512C912CFFE1F6
S11310A0F915D8F08B3279F038F4803279F0833244
S11310B0A1F4F92DF0612EC08D3261F0803369F412
S11310C0292D21602DC0392D3260932E892D846005
S11310D0982E2AC0E92DE86015C097FC2DC020ED9C
S11310E0280F2A3088F496FE06C03AE0139F200D9C
S11310F01124122F19C08AE0589E200D1124522E5B
S1131100E92DE0629E2E10C08E3231F496FCE5C2C9
S1131110F92DF0649F2E08C08C3621F4292D206807
S1131120922E02C0883641F4F10193FD859193FF1C
S113113081911F018111B3CF9BEB980F933020F461
S1131140992D9061805E07C09BE9980F933008F059
S113115066C1992D9F7E96FF16E09F73992E853662
S113116019F49064992E08C0863621F4392F30681A
S1131170932E02C01111115097FE07C01C3350F476
S113118044244394410E27E00BC0183038F027E084
S113119017E005C027E09CE3492E02C0212F412C13
S11311A0560184E0A80EB11CF60160817181828130
S11311B09381042DA3010E94E10B6C01F981FC874A
S11311C0F0FF02C0F3FF06C091FC06C092FE06C009
S11311D000E205C00DE203C00BE201C000E08C8513
S11311E08C7019F001115AC29BC297FE10C04C0CAE
S11311F0FC85F4FF04C08A81813309F44A941414F1
S113120074F528E0241578F588E0482E2CC096FC67
S11312102AC0812F90E08C159D059CF03CEFC316ED
S11312203FEFD30674F0892D8068982E0AC0E2E05F
S1131230F0E0EC0FFD1FE10FF11D8081803319F404
S113124011501111F4CF97FE0EC044244394410E63
S1131250812F90E0C816D9062CF41C1904C044242C
S1131260439401C010E097FE06C01C141D0434F41E
S1131270C601019605C085E090E002C081E090E0DF
S113128001110196112331F0212F30E02F5F3F4FE0
S1131290820F931F252D30E08217930714F4581AF8
S11312A001C0512C892D897049F4552039F0B701BA
S11312B080E290E00E94CF0C5A94F7CF002329F0EB
S11312C0B701802F90E00E94CF0C93FC09C05520F9
S11312D039F0B70180E390E00E94CF0C5A94F7CF25
S11312E097FE4CC04601D7FE02C0812C912CC6014A
S11312F088199909F301E80FF91FFE87ED87960114
S113130024193109388B2F87012F10E0119501958D
S113131011093FEF8316930629F4B7018EE290E09A
S11313200E94CF0CC814D9044CF08F859889881575
S1131330990524F4ED85FE85818101C080E3F1E007
S11313408F1A91082D853E852F5F3F4F3E872D874D
S1131350801691062CF0B70190E00E94CF0CD9CFF3
S1131360C814D90441F49A81963320F4953319F4BE
S11313703C8534FF81E3B70190E04EC08A8181331C
S113138019F09C859F7E9C87B70190E00E94CF0C4A
S1131390111105C094FC18C085E690E017C0B70190
S11313A08EE290E00E94CF0C1E5F82E001E0080F05
S11313B0F301E80FF11D8081B70190E00E94CF0C8A
S11313C0802F0113F3CFE6CF85E490E0B7010E94AC
S11313D0CF0CD7FC06C0C114D10441F4EC85E4FF62
S11313E005C0D194C194D1088DE201C08BE2B7014C
S11313F090E00E94CF0C80E32AE0C216D1042CF0C6
S11314008F5FFAE0CF1AD108F7CFB70190E00E94BE
S1131410CF0CB701C601C0960E94CF0C54C18336CD
S113142031F0833779F0833509F056C020C0560176
S113143032E0A30EB11CF6018081898301E010E043
S1131440630112C05601F2E0AF0EB11CF601C08078
S1131450D18096FE03C0612F70E002C06FEF7FEF72
S1131460C6010E94C40C8C01F92DFF7714C05601EB
S113147022E0A20EB11CF601C080D18096FE03C00A
S1131480612F70E002C06FEF7FEFC6010E94B90CBC
S11314908C01F92DF0689F2EF3FD1AC0852D90E084
S11314A008171907A8F4B70180E290E00E94CF0C56
S11314B05A94F4CFF60197FC859197FE81916F01C0
S11314C0B70190E00E94CF0C51105A9401501109B9
S11314D00115110579F7F7C0843611F0893661F5E5
S11314E0560197FE09C024E0A20EB11CF6016081EA
S11314F07181828193810AC0F2E0AF0EB11CF601C2
S113150060817181072E000C880B990BF92DFF76F1
S11315109F2E97FF09C090958095709561957F4F98
S11315208F4F9F4FF0689F2E2AE030E0A3010E9466
S1131530210DC82EC6183FC0092D853721F40F7E12
S11315402AE030E01DC0097F8F3691F018F4883509
S113155059F0C3C0803719F0883711F0BEC000615C
S113156004FF09C0046007C094FE08C0066006C0FA
S113157028E030E005C020E130E002C020E132E0A4
S1131580560107FF09C084E0A80EB11CF601608172
S113159071818281938108C0F2E0AF0EB11CF60123
S11315A06081718180E090E0A3010E94210DC82E2A
S11315B0C6180F77902E96FE0BC0092D0E7FC1160C
S11315C050F494FE0AC092FC08C0092D0E7E05C09A
S11315D0DC2C092D03C0DC2C01C0D12E04FF0DC06E
S11315E0FE01EC0DF11D8081803311F4097E09C0E8
S11315F002FF06C0D394D39404C0802F867809F0E8
S1131600D39403FD11C000FF06C01C2DD51480F433
S1131610150D1D190DC0D51458F4B70180E290E0E2
S11316200E94CF0CD394F7CFD51410F45D1801C0E9
S1131630512C04FF10C0B70180E390E00E94CF0C4E
S113164002FF17C001FD03C088E790E002C088E5EF
S113165090E0B7010CC0802F867859F001FF02C0DA
S11316608BE201C080E207FD8DE2B70190E00E94A9
S1131670CF0CC11638F4B70180E390E00E94CF0C80
S11316801150F7CFCA94F301EC0DF11D8081B7011D
S113169090E00E94CF0CC110F5CF15C0F4E0F51511
S11316A060F584E0581A93FE1FC0011127C02C85F1
S11316B023FF2AC008E610E0392D3071932EF8017B
S11316C08491811124C0552009F4E4CCB70180E24F
S11316D090E00E94CF0C5A94F6CFF701868197814F
S11316E026C08FEF9FEF23C0B70180E290E00E94F5
S11316F0CF0C5A945110F8CFD8CF512CB701802F6A
S113170090E00E94CF0CD3CF0CE610E0D5CF91101F
S11317108052B70190E00E94CF0C0F5F1F4FCFCFD4
S113172023E0251510F483E0BDCF512CC0CF609683
S1131730E2E10C94C60BA29FB001B39FC001A39F2A
S1131740700D811D1124911DB29F700D811D1124F6
S1131750911D08952F923F924F925F926F927F92C4
S11317608F929F92AF92BF92CF92DF92EF92FF92AD
S11317700F931F93CF93DF93CDB7DEB7CA1BDB0B59
S11317800FB6F894DEBF0FBECDBF09942A883988FE
S113179048885F846E847D848C849B84AA84B98405
S11317A0C884DF80EE80FD800C811B81AA81B98111
S11317B0CE0FD11D0FB6F894DEBF0FBECDBFED0125
S11317C00895283008F027E03327DA01990F311DF6
S11317D087FD916000966105710539F432602E5FD2
S11317E03D9330E32A95E1F708959F3F30F0803828
S11317F07105610509F03C5F3C5F3D93913008F051
S11318008068911DDF93CF931F930F93FF92EF9204
S1131810192F987F9695E92F96959695E90FFF27AE
S1131820E653FF4F99273327EE24FF24A701E7014E
S113183005900894079428F4360FE71EF81E491FF4
S1131840511D660F771F881F991F0694A1F70590F5
S1131850079428F4E70EF81E491F561FC11D770F81
S1131860881F991F661F0694A1F70590079428F412
S1131870F80E491F561FC71FD11D880F991F661FD9
S1131880771F0694A1F70590079420F4490F561F7B
S1131890C71FD81F990F661F771F881F0694A9F7C3
S11318A084911095177041F0D695C7955795479533
S11318B0F794E7941A95C1F7E0E7F0E0689415907F
S11318C0159135916591959105907FE27395E11895
S11318D0F10A430B560BC90BD009C0F7E10CF11EFA
S11318E0431F561FC91FD01D7EF4703311F48A950F
S11318F0E6CFE894015030F0080F0AF400270217ED
S113190008F4202F2395022F7A3328F079E37D936E
S11319102A95E9F710C07D932A9589F60694979540
S11319206795379517951794E118F10A430B560BF1
S1131930C90BD00998F023957E9173957A3308F0FA
S113194070E37C932013B8F77E9170617D9330F03F
S1131950839571E37D9370E32A95E1F71124EF9069
S1131960FF900F911F91CF91DF91992787FD90955B
S11319700895FC010590615070400110D8F78095DE
S113198090958E0F9F1F0895FC0161507040019047
S11319900110D8F7809590958E0F9F1F08950F938F
S11319A01F93CF93DF93FB01238121FD03C08FEFAE
S11319B09FEF2CC022FF16C04681578124813581B8
S11319C04217530744F4A081B1819D012F5F3F4F1B
S11319D0318320838C93268137812F5F3F4F378358
S11319E0268314C08B01EC01FB010084F185E02DFA
S11319F00995892BE1F6D80116968D919C9117973C
S1131A00019617969C938E931697CE01DF91CF91F2
S1131A101F910F910895A0E0B0E0E1E1FDE00C9486
S1131A20BA0BAE014B5F5F4FFA0161917191AF0147
S1131A308091AF029091B0020E941E08E2E00C94E3
S1131A40D60BFA01AA27283051F1203181F1E8940C
S1131A506F936E7F6E5F7F4F8F4F9F4FAF4FB1E09D
S1131A603ED0B4E03CD0670F781F891F9A1FA11D98
S1131A70680F791F8A1F911DA11D6A0F711D811D99
S1131A80911DA11D20D009F468943F912AE0269F5E
S1131A9011243019305D3193DEF6CF010895462FBD
S1131AA04770405D4193B3E00FD0C9F7F6CF462F9E
S1131AB04F70405D4A3318F0495D31FD4052419307
S1131AC002D0A9F7EACFB4E0A695979587957795C4
S1131AD06795BA95C9F700976105710508959B014B
S1131AE0AC010A2E06945795479537952795BA95D4
S1131AF0C9F7620F731F841F951FA01D0895F894E2
S1051B00FFCF11
S1131B02000016430000114300000C430000074389
S1131B12000002430000FA420000F0420000E642E4
S1131B220000DC420000D2420000C8420000BE4273
S1131B320000B4420000AA420000A0420000964203
S1131B4200008C42000082420000704200005C42AD
S1131B5200004842000034420000204200000C42CF
S1131B620000F0410000C8410000A04100007041A3
S1131B72000020410000A040000000000000A0C0BE
S1131B82000020C1000070C10000A0C10000C8C153
S1131B920000F0C100000CC2000020C29A99364332
S1131BA200804D4366E66743333383439AD99443B3
S1131BB29A59A943CD4CC143CD4CDD436626FE431D
S1131BC2CD6C124433532944008044449AD964446A
S1131BD200C0854400009D440020B9440020DB4439
S1131BE20040024500A01B4500D03A450050614523
S1131BF200A088450090A6450038CC4500D8FB4596
S1131C0200401C46002043460048754600409B465F
S1131C1200F6C5460054FE4600AD24470006574769
S1131C22009A8D470033BC478083FC4700182B4839
S1131C3200476A48C027A2480000000200000000D2
S1131C42D400000000003F065B4F666D7D077F6F86
S1131C52777C395E797100414443203D2025392E39
S1131C6233662020202056203D2025372E3366203F
S1131C7220202052203D202531302E326620202083
S1131C822043203D2025372E316620202020462067
S10D1C923D2025382E3166200A009B
S9030000FC
