S01E000030315F426C696E6B5F4C45445F30325F30313235487A2E7372656378
S11300000C9434000C943E000C943E000C943E007E
S11300100C943E000C943E000C943E000C943E0064
S11300200C943E000C943E000C943E000C943E0054
S11300300C943E000C943E000C943E000C943E0044
S11300400C943E000C943E000C943E000C943E0034
S11300500C943E000C943E000C943E000C943E0024
S11300600C943E000C943E0011241FBECFEFD8E048
S1130070DEBFCDBF0E9447000C9457000C940000D3
S113008080E187B988B18F7E88B988B908950E94C4
S1130090400090E12FEF3FE483EC2150304080405A
S11300A0E1F700C0000088B1892788B9F3CFF8943C
S10500B0FFCF7C
S9030000FC
