:100000000C943F000C9451000C9451000C9451003E
:100010000C9451000C9451000C9451000C9451001C
:100020000C9451000C9451000C9451000C9451000C
:100030000C9451000C9451000C9451000C945100FC
:100040000C9451000C9451000C9451000C945100EC
:100050000C9451000C9451000C9451000C945100DC
:100060000C9451000C945100CB01D201D801DF0156
:10007000E401EB01F201F901FF0106020D02112476
:100080001FBECFEFD8E0DEBFCDBF21E0A0E0B1E0E2
:1000900001C01D92A030B207E1F70E941D020C942E
:1000A00054050C9400008AB1806F8AB987B18F60C3
:1000B00087B984B18E6184B9539A84B184B9E0E878
:1000C000F0E080818083E1E8F0E0808180838081BE
:1000D000826080838081806480831092850010928A
:1000E00084008AB18AB98BB18BB90895FC01208153
:1000F00031812617370721F41182108281E008959B
:100100002F5F3F4FFC013183208380E008950F93E0
:100110001F93FC01DC0194960481158126813781AF
:100120000193119321933193EA17FB07A9F7FC017F
:1001300040A351A362A373A31F910F9108950F933E
:100140001F93CF93DF936033B9F4EC018C01085D0A
:100150001F4F60E070E0CB0129913991499159918D
:100160000E94E902C017D107B9F720E030E040E271
:1001700051E40E945A0322C06133E9F4EC018C017E
:10018000085D1F4F60E070E0CB01299139914991E2
:1001900059910E94E902C017D107B9F720E030E079
:1001A00040E251E40E945A032CE53FE842E250E469
:1001B0000E945A0303C060E070E0CB01DF91CF9151
:1001C0001F910F910895CF93DF93EA0120E030E073
:1001D00040E251E40E94B9040E94CC03CB0168EED6
:1001E00073E00E9426056B8364E670E00E9426059A
:1001F0006A836AE070E00E94260569838883DF9144
:10020000CF910895CF92DF92EF92FF920F93CF9309
:10021000DF93811103C0299A2A980BC02998813055
:1002200019F42A9A2B980AC02A98823011F42B9A32
:1002300005C02B98833011F42C9A01C02C9880EDC6
:10024000800F823008F06AC0E9016A017B0120E07A
:1002500030E0A901C701B6010E94B404882364F00C
:1002600027EE3BEF4FE151E4C701B6010E94550371
:10027000181614F02C982B9820E030E040E251E45E
:10028000C701B6010E94B40488235CF02DE73FEF5C
:1002900047EC52E4C701B6010E94550318160CF052
:1002A0002C980033E9F420E030E040E050E4C7014E
:1002B000B6010E945503882354F020E030E048EC5A
:1002C00053E4C701B6010E94B40418163CF52B98FC
:1002D0002A9829988AE0888389838A838B831EC021
:1002E0000133E1F426E233E949E45FE3C701B601F3
:1002F0000E945503882354F026EF3AE74DE153E47A
:10030000C701B6010E94B404181644F42B982A9829
:1003100029988AE0888389838A838B83DF91CF91B0
:100320000F91FF90EF90DF90CF90089580E090E0E4
:1003300061E070E038B1AB01082E02C0440F551FD8
:100340000A94E2F7242F2095232328B901968430BC
:10035000910581F787E090E061E070E03BB1AB018F
:10036000082E02C0440F551F0A94E2F7242F20954F
:1003700023232BB901978330910581F70895962F98
:10038000482F50E04B30510508F04EC0FA01EC5CAC
:10039000FF4F0C943A058BB1806F8BB988B18360A5
:1003A00088B948C08BB180668BB988B188B942C022
:1003B0008BB1806B8BB988B1856088B93BC08BB13C
:1003C000806F8BB9429A36C08BB180668BB988B189
:1003D000866088B92FC08BB1806D8BB988B186607B
:1003E00088B928C08BB1806D8BB988B1876088B916
:1003F00021C08BB180678BB988B188B91BC08BB124
:10040000806F8BB988B1876088B914C08BB1806761
:100410008BB988B1866088B90DC08BB180698BB902
:1004200088B1876088B90895913031F48A3021F01D
:10043000439A08959130E1F30895CF93DF93CDB7B8
:10044000DEB7E4970FB6F894DEBF0FBECDBF0E94B3
:100450005300FE01319688E2DF011D928A95E9F78B
:100460001EA61DA618AA1FA619AA1AAA1BAA1CAA6C
:10047000412C512C32010F2EF0E3BF2EF02D10E055
:10048000730162010F2EF4E82F2E312CF02D0F2E68
:10049000F1E88F2E912CF02D69E170E0CE018D9660
:1004A0000E947600882309F448C05B9AB5E3BA95A8
:1004B000F1F700005B98F10111821082B59B2DC00D
:1004C000B598D4018C9186FF11C0E6E8F0E0608118
:1004D000718180E090E00E94020469AB7AAB8BAB43
:1004E0009CABD4018C918F7B8C9317C0F4018081DD
:1004F00086FD13C0A6E8B0E06D917C918081806498
:10050000808380E090E00E94020429A93AA94BA9C7
:100510005CA90E94E8022B013C0126E933E44BE090
:100520005CE3C301B2010E94B9046B017C01AB0121
:10053000BC01CE0101960E94870069E170E0CE0106
:100540008F960E947600882319F14A9B11C061E3BF
:10055000CE0101960E949F006B017C01AE01475DB8
:100560005F4F0E94E3000F2EF1E3BF2EF02D10C06D
:1005700060E3CE0101960E949F006B017C01AE01F9
:10058000475D5F4F0E94E3000F2EF0E3BF2EF02D7A
:100590000B2D9E01275D3F4FB701A601812F0E94C1
:1005A00002010E949601E9E2F0E0EC0FFD1FE10F6D
:1005B000F11D612F80810E94BF011F5F143008F080
:1005C00010E0EFE7FEE33197F1F700C0000064CFE1
:1005D0005058BB27AA270E9400030C947A040E945B
:1005E0006C0438F00E94730420F039F49F3F19F432
:1005F00026F40C9469040EF4E095E7FB0C94630474
:10060000E92F0E948B0458F3BA1762077307840717
:10061000950720F079F4A6F50C94AD040EF4E0955E
:100620000B2EBA2FA02D0B01B90190010C01CA01AC
:10063000A0011124FF27591B99F0593F50F4503E57
:1006400068F11A16F040A22F232F342F4427585F49
:10065000F3CF469537952795A795F0405395C9F761
:100660007EF41F16BA0B620B730B840BBAF0915019
:10067000A1F0FF0FBB1F661F771F881FC2F70EC0B8
:10068000BA0F621F731F841F48F48795779567958B
:10069000B795F7959E3F08F0B0CF9395880F08F077
:1006A0009927EE0F9795879508950E943F0408F4C7
:1006B00081E008950E946E030C947A040E947304F2
:1006C00058F00E946C0440F029F45F3F29F00C942C
:1006D000630451110C94AE040C9469040E948B04C1
:1006E00068F39923B1F3552391F3951B550BBB2761
:1006F000AA2762177307840738F09F5F5F4F220FA6
:10070000331F441FAA1FA9F335D00E2E3AF0E0E89C
:1007100032D091505040E695001CCAF72BD0FE2FE6
:1007200029D0660F771F881FBB1F2617370748077A
:10073000AB07B0E809F0BB0B802DBF01FF27935832
:100740005F4F3AF09E3F510578F00C9463040C948F
:10075000AE045F3FE4F3983ED4F3869577956795B2
:10076000B795F7959F5FC9F7880F911D9695879567
:1007700097F90895E1E0660F771F881FBB1F621786
:1007800073078407BA0720F0621B730B840BBA0B44
:10079000EE1F88F7E09508950E94D3036894B11185
:1007A0000C94AE0408950E94930488F09F5798F02B
:1007B000B92F9927B751B0F0E1F0660F771F881F66
:1007C000991F1AF0BA95C9F714C0B13091F00E9480
:1007D000AD04B1E008950C94AD04672F782F8827FD
:1007E000B85F39F0B93FCCF3869577956795B395A7
:1007F000D9F73EF490958095709561957F4F8F4F16
:100800009F4F0895E89409C097FB3EF4909580951A
:10081000709561957F4F8F4F9F4F9923A9F0F92FC6
:1008200096E9BB279395F695879577956795B79544
:10083000F111F8CFFAF4BB0F11F460FF1BC06F5F2A
:100840007F4F8F4F9F4F16C0882311F096E911C03C
:10085000772321F09EE8872F762F05C0662371F05D
:1008600096E8862F70E060E02AF09A95660F771F71
:10087000881FDAF7880F9695879597F90895990F4D
:100880000008550FAA0BE0E8FEEF16161706E8075A
:10089000F907C0F012161306E407F50798F0621B7B
:1008A000730B840B950B39F40A2661F0232B242B50
:1008B000252B21F408950A2609F4A140A6958FEF6F
:1008C000811D811D089597F99F6780E870E060E0C1
:1008D00008959FEF80EC089500240A9416161706D9
:1008E00018060906089500240A9412161306140621
:1008F00005060895092E0394000C11F4882352F084
:10090000BB0F40F4BF2B11F460FF04C06F5F7F4F3B
:100910008F4F9F4F089557FD9058440F551F59F022
:100920005F3F71F04795880F97FB991F61F09F3FDC
:1009300079F087950895121613061406551FF2CF05
:100940004695F1DF08C0161617061806991FF1CF55
:1009500086957105610508940895E894BB2766277C
:100960007727CB0197F908950E943F0408F48FEF91
:1009700008950E94CC040C947A040E946C0438F010
:100980000E94730420F0952311F00C9463040C94DE
:10099000690411240C94AE040E948B0470F3959F9B
:1009A000C1F3950F50E0551F629FF001729FBB2766
:1009B000F00DB11D639FAA27F00DB11DAA1F649F02
:1009C0006627B00DA11D661F829F2227B00DA11DB5
:1009D000621F739FB00DA11D621F839FA00D611D3B
:1009E000221F749F3327A00D611D231F849F600D5C
:1009F000211D822F762F6A2F11249F5750409AF085
:100A0000F1F088234AF0EE0FFF1FBB1F661F771F10
:100A1000881F91505040A9F79E3F510580F00C94DB
:100A200063040C94AE045F3FE4F3983ED4F38695E0
:100A300077956795B795F795E7959F5FC1F7FE2B7B
:100A4000880F911D9695879597F9089597FB072E26
:100A500016F4009407D077FD09D00E94400507FCEA
:100A600005D03EF4909581959F4F089570956195BE
:100A70007F4F0895EE0FFF1F0590F491E02D09942C
:100A8000AA1BBB1B51E107C0AA1FBB1FA617B707B4
:100A900010F0A61BB70B881F991F5A95A9F78095D0
:0C0AA0009095BC01CD010895F894FFCFA3
:00000001FF
