S014000030305F426C696E6B5F4C45442E737265632D
S11300000C9434000C943E000C943E000C943E007E
S11300100C943E000C943E000C943E000C943E0064
S11300200C943E000C943E000C943E000C943E0054
S11300300C943E000C943E000C943E000C943E0044
S11300400C943E000C943E000C943E000C943E0034
S11300500C943E000C943E000C943E000C943E0024
S11300600C943E000C943E0011241FBECFEFD8E048
S1130070DEBFCDBF0E9447000C9460000C940000CA
S113008080E287B988B18F7D88B988B908950E94C4
S1130090400090E22FEF34E38CE021503040804068
S11300A0E1F700C0000088B1892788B92FEF3EE945
S11300B084E2215030408040E1F700C00000EACFE4
S10700C0F894FFCFDE
S9030000FC
