S0180000414C4C5F504152545F49535F484552452E737265631F
S11300000C9434000C943E000C943E000C943E007E
S11300100C943E000C943E000C943E000C943E0064
S11300200C943E000C943E000C943E000C943E0054
S11300300C943E000C943E000C943E000C943E0044
S11300400C943E000C943E000C943E000C943E0034
S11300500C943E000C943E000C943E000C943E0024
S11300600C943E000C943E0011241FBECFEFD8E048
S1130070DEBFCDBF0E947E000C94F8000C940000FB
S11300802098219885B18E7F85B985B985B18D7FFA
S113009085B985B987B18E6387B9259A48B1542F3C
S11300A05D7F58B998B1492F4B7F48B998B1392F22
S11300B0377F38B998B1292F2F7E28B998B1892F65
S11300C08F7D88B9452B342B232B822B88B985B19E
S11300D08F7D85B985B90895FC019081961718F034
S11300E0108281E008959F5F908380E0089583B13A
S11300F08170089583B1869581700895CF93DF93BD
S1130100CDB7DEB72F970FB6F894DEBF0FBECDBFC5
S11301100E944000198220E048E268E2CE01029683
S11301200E94C8006894FF24F5F864E6CE010196A5
S11301300E946C00882319F085B18F2585B90E942F
S11301407A00082F0E947700182F602FCE010296A4
S11301500E94D100612FCE0109960E94D10060E077
S1130160CE0102960E94F30060E0CE0109960E943F
S1130170F300CE0102960E94F000CE0109960E947F
S1130180F0008FE19EE40197F1F700C00000CDCFAD
S1130190FC016083418312822383248315821682A7
S11301A00895FC011582168264838381681302C05A
S11301B01282089582818F5F662341F090818917AE
S11301C068F0128281E08383858308959181891781
S11301D028F01282138281E0868308958283089531
S11301E0FC0183810895FC018581611115820895C4
S10701F0F894FFCFAD
S9030000FC
