S0230000506172745F315F5F5F4C6564735F4F6E5F4368616E67655F506F732E73726563E3
S11300000C9434000C943E000C943E000C943E007E
S11300100C943E000C943E000C943E000C943E0064
S11300200C943E000C943E000C943E000C943E0054
S11300300C943E000C943E000C943E000C943E0044
S11300400C943E000C943E000C943E000C943E0034
S11300500C943E000C943E000C943E000C943E0024
S11300600C943E000C943E0011241FBECFEFD8E048
S1130070DEBFCDBF0E947E000C9432010C940000C0
S11300802098219885B18E7F85B985B985B18D7FFA
S113009085B985B987B18E6387B9259A48B1542F3C
S11300A05D7F58B998B1492F4B7F48B998B1392F22
S11300B0377F38B998B1292F2F7E28B998B1892F65
S11300C08F7D88B9452B342B232B822B88B985B19E
S11300D08F7D85B985B90895FC019081961718F034
S11300E0108281E008959F5F908380E0089583B13A
S11300F08170089583B1869581700895CF93DF93BD
S1130100CDB7DEB761970FB6F894DEBF0FBECDBF93
S11301100E94400019821B821A8220E048E268E2B1
S1130120CE0104960E94C9006894FF24F5F864E6A1
S1130130CE0101960E946C00882319F085B18F25A9
S113014085B90E947A00082F0E947700182F602F2B
S1130150CE0104960E94D200612FCE010B960E941C
S1130160D20060E0CE0104960E94F100182F60E0F6
S1130170CE010B960E94F100482F612FCE0102960A
S11301800E94F6008FE19EE40197F1F700C00000A1
S1130190CECFFC01608341831282238324831582A2
S11301A016820895FC011582168264838381681384
S11301B002C01282089582818F5F662341F090818C
S11301C0891768F0128281E0838385830895918181
S11301D0891728F01282138281E08683089582832E
S11301E00895FC0185816111158208956623C1F08B
S11301F0FC01208131812430310590F42F5F3F4F81
S11302003183208385E090E0AC01421B530B81E0F5
S113021090E002C0880F991F4A95E2F788B90895C3
S11302204423C1F0FC012081318121153105B9F04D
S1130230215031093183208385E090E0AC01421BD9
S1130240530B81E090E002C0880F991F4A95E2F7B2
S113025088B90895FC0180819181892B11F480E291
S10B026088B90895F894FFCF5A
S9030000FC
