:100000000C9434000C943E000C943E000C943E0082
:100010000C943E000C943E000C943E000C943E0068
:100020000C943E000C943E000C943E000C943E0058
:100030000C943E000C943E000C943E000C943E0048
:100040000C943E000C943E000C943E000C943E0038
:100050000C943E000C943E000C943E000C943E0028
:100060000C943E000C943E0011241FBECFEFD8E04C
:10007000DEBFCDBF0E9456000C9483000C9400009C
:10008000209A85B18E7F85B985B93C9A88B18F7EDB
:1000900088B988B90895FC019081961718F01082EC
:1000A00081E008959F5F908380E00895CF93DF9370
:1000B00000D0CDB7DEB70E94400019821A8210E14D
:1000C000189B0CC064E1CE0101960E944B0088236E
:1000D00081F01A8288B1812788B90BC060EACE010D
:1000E00002960E944B00882321F0198288B1812753
:1000F00088B92FE788E391E0215080409040E1F7F4
:0A01000000C00000DDCFF894FFCF2F
:00000001FF
