:100000000C9434000C943E000C943E000C943E0082
:100010000C943E000C943E000C943E000C943E0068
:100020000C943E000C943E000C943E000C943E0058
:100030000C943E000C943E000C943E000C943E0048
:100040000C943E000C943E000C943E000C943E0038
:100050000C943E000C943E000C943E000C943E0028
:100060000C943E000C943E0011241FBECFEFD8E04C
:10007000DEBFCDBF0E9487000C94B7000C94000037
:10008000209A85B18E7F85B985B987B1806387B99C
:1000900088B1282F2F7E28B998B1892F8F7D88B9F4
:1000A000822B88B90895FC019081691309C098B129
:1000B00080E2892788B980818F5F808381E00895FD
:1000C000961730F0941720F49F5F908380E0089596
:1000D000640F961738F098B180E2892788B91082AA
:1000E00081E008959F5F908380E00895FC01208166
:1000F00031812617370720F01182108281E00895A0
:100100002F5F3F4FFC013183208380E00895CF9320
:10011000DF9300D01F92CDB7DEB719821B821A82FF
:100120000E94400010E146E962E3CE0101960E9480
:100130005300189B0AC019821B821A8246E962E3A7
:10014000CE0101960E9453000BC060E273E0CE0125
:1001500002960E947600882319F088B1812788B919
:100160008FE19EE40197F1F700C00000DCCFF89426
:02017000FFCFBF
:00000001FF
